:020000022000DC
:10600000000001205D630200B9630200BB6302006F
:10601000BD630200BF630200C16302000000000014
:10602000000000000000000000000000C363020048
:10603000C563020000000000C7630200C9630200DC
:10604000C5DD0200CB630200ADDA0200B9DF020059
:10605000D1DF0200CB630200CDD70200CB63020088
:10606000CB630200CB630200CB630200CB63020070
:10607000CB630200CB630200CB630200CB63020060
:10608000CB63020079ED0200CB630200CB63020018
:10609000CB630200CB63020095B60300CB63020022
:1060A000CB630200CB630200CB630200CB63020030
:1060B000CB630200CB630200000000000000000080
:1060C000CB630200CB630200CB630200CB63020010
:1060D000D9E50200CB630200CB63020000000000A0
:1060E00000000000000000000000000000000000B0
:1060F00000000000000000000000000000000000A0
:10610000000000000000000000000000000000008F
:10611000000000000000000000000000000000007F
:10612000000000000000000000000000000000006F
:10613000000000000000000000000000000000005F
:10614000000000000000000000000000000000004F
:10615000000000000000000000000000000000003F
:10616000000000000000000000000000000000002F
:10617000000000000000000000000000000000001F
:10618000000000000000000000000000000000000F
:1061900000000000000000000000000000000000FF
:1061A00000000000000000000000000000000000EF
:1061B00000000000000000000000000000000000DF
:1061C00000000000000000000000000000000000CF
:1061D00000000000000000000000000000000000BF
:1061E00000000000000000000000000000000000AF
:1061F000000000000000000000000000000000009F
:10620000354936480A1A02D0072291438D4634494F
:1062100034480A1A06D00722914381F309880222E2
:1062200082F3148830483149314A00F044F831484B
:106230003149324A00F03FF831483249324A00F0E1
:106240003AF832483249334A00F035F83248334997
:10625000334A00F030F833483349344A00F02BF821
:1062600033483449344A00F026F83448344900228F
:1062700000F02CF833483449002200F027F8334866
:106280003349091A082902DB002202604160314AC1
:1062900090471F481F49884205D00268043003B464
:1062A000904703BCF7E700208646EC46002000211B
:1062B000294A9047FEE7884207D0521A05D0037852
:1062C00001300B700131013AF9D17047884202D098
:1062D00002700130FAE770470000012000E0002062
:1062E0000000012000000120DC330400FC2F00200E
:1062F000DC360020D0630200D063020060E90300B6
:10630000DC330400FC2F0020FC2F002068EB03008E
:1063100068EB030068EB030068EB030068EB030025
:1063200068EB030068EB030068EB0300DA3304005A
:10633000BC3A0400DC360020DC360020DC360020CD
:10634000905000209050002090500020905000204D
:1063500090700020856302009DEF020000F036B8C7
:106360000F484FF00701884385460E4880470E4886
:10637000016841F470010160BFF34F8FBFF36F8F6D
:10638000FFF73EBF09480A490A4A884207D0521A15
:1063900005D0037801300B700131013AF9D1704713
:1063A000000001208DBB030088ED00E054EB0300EA
:1063B000E82F0020FC2F0020FEE7FEE7FEE7FEE7C7
:1063C000FEE7FEE7FEE7FEE7FEE7FEE7FFF7C8BFF2
:1063D00000B585B00190019B002B0AD0074B43F01C
:1063E00001030393019B9B010293039B029898472F
:1063F00000E000BF05B05DF804FB00BF80EB0300C8
:1064000000B583B00190019B002B0AD04FF47A7045
:10641000FFF7DEFF019B013B0193019B002BF5D1B0
:1064200000E000BF03B05DF804FB08B508F038FFDA
:1064300000BF08BD00B589B0039002910192019B95
:10644000002B33D00023079303230693029A079B64
:106450001344019A1946002008F0D2FE0590079ACD
:10646000059B13440793019A059BD31A0193059B3F
:10647000002B13D10F4B1B7883F00103DBB2002BF1
:1064800013D10120FFF7BCFF069B013B0693069B3F
:10649000002B03D1074B00221A7007E0054B0122A5
:1064A0001A70019B002BD1D100E000BF00BF09B0E2
:1064B0005DF804FBDC36002000B585B00390029146
:1064C000054B00934023054A0299039800F012F807
:1064D00000BF05B05DF804FB35640200E036002023
:1064E00082B0019000BF02B0704782B0019000BF3F
:1064F00002B0704700B5A1B00590049103920293D9
:10650000049803F0A1F9039B1593029B16930023B3
:10651000179300238DF8603000231993229B1A9360
:1065200000231F930FA91F9B0822049803F066FA0B
:1065300008231F93119B1293BDF84030ADF84C30E7
:10654000BDF84230ADF84E3000238DF851309DF843
:106550003C3003F00303DBB2012B26D10F9BC3F3C6
:1065600095231C939DF83C30C3F3C203DBB28DF836
:106570005030BDF83C30C3F38313DBB21B931B9B3D
:106580009A0009A91F9B049803F038FA1B9B9B00F3
:106590001F9A13441F9312AA09A915AB009313461F
:1065A0001B9A1C9800F004FF2FE09DF83C3003F08C
:1065B0000303DBB2022B28D1BDF83E30C3F38913AD
:1065C0009BB21E939DF83C30C3F3C203DBB28DF83F
:1065D00050301E9B082B28BF08231D9307A91F9B23
:1065E0001D9A049803F00AFA1F9A1D9B13441F93E7
:1065F0001E9A1D9BD31A1E9315AB12AA07A81D99AC
:1066000000F078FF1E9B002BE3D1049803F02BF9D8
:1066100000BF21B05DF804FB82B00190019BDB68F4
:1066200001225A7100BF02B07047000000B583B06C
:106630004FF0FF330193FFF7F8FE0421084800F004
:10664000D1FD0190019B002B03DA0649412002F0A5
:106650009AF80348FFF7E0FF00BF03B05DF804FBC2
:1066600044EB030098EB030000B583B00190009168
:10667000019B1B681B6800990198984700BF03B0F5
:106680005DF804FB00B583B00190019B1B685B685B
:106690000198984700BF03B05DF804FB00B583B0D4
:1066A0000190019B1B689B680198984700BF03B04D
:1066B0005DF804FB82B001900B468DF80330019B1E
:1066C000DB689DF803201A7100BF02B0704782B0EA
:1066D0000190019BDB681B79184602B0704782B0BD
:1066E0000190019BDB6801225A7100BF02B0704724
:1066F00082B00190019BDB685B79184602B070475D
:1067000000B585B001900091154BFF229A60144BA3
:1067100000221A60124B00225A60114B0022C3F86B
:1067200018240F4B0022C3F814240D4B002283F8C9
:1067300020240C4802F0ECFF0390039B002B01D0B7
:10674000039B08E0084803F017FA084A084BD31ADD
:10675000DB0802930023184605B05DF804FB00BF78
:106760008838002008EB030008EC030008EB030066
:1067700008EA0300024A034BD31ADB0818467047A5
:1067800008EB030008EA030000B587B001900B4650
:106790008DF803309DF80330002B1FD0FFF7EAFF80
:1067A00004900023059313E0059B9B000E4A1344BD
:1067B0000393039B1B881A46019B1B689A4204D1D2
:1067C000019B059A1A60002309E0059B013305939C
:1067D000059A049B9A42E7D3052300E0002318465C
:1067E00007B05DF804FB00BFE82F002000B585B0BE
:1067F00001900B468DF803309DF8032001AB114644
:106800001846FFF7C1FF0346002B07D1019BDB00B1
:10681000054A13440393039B1B6800E000231846BA
:1068200005B05DF804FB00BF08EA030084B00190E6
:106830000B468DF80330019BDB00174A134402938B
:106840009DF80330013B032B1CD801A252F823F022
:106850006168020069680200716802007B680200DA
:1068600002238DF80F3011E004238DF80F300DE076
:10687000029B1B798DF80F3008E0029B5B798DF845
:106880000F3003E000238DF80F3000BF9DF80F306C
:10689000184604B0704700BF08EA030084B00190B6
:1068A000009100238DF80F30019B1B7803F0040347
:1068B000DBB2002B24D0019B1B78C3F30103DBB2B6
:1068C000012B02D0022B0CD017E0009B1B68019A11
:1068D0001288C2F38312D2B213449A1C009B1A602E
:1068E0000BE0009B1B68019A5288C2F3891292B296
:1068F00013449A1C009B1A6000BF01238DF80F30CF
:106900009DF80F30184604B07047000000B58BB0FA
:106910000023ADF826303E4802F00DFA3D4802F063
:106920000AFA3D4B5B6804933B4B9B680693049AC1
:10693000069B134002339B00374A134404330893E9
:1069400004AB19460898FFF7A9FF0346002B09D0AE
:10695000049A069B134002339B002F4A13440433CE
:106960000893EDE700BF0023079311E0049B5A1C36
:106970000492069A1340079A920001A90A442649F4
:1069800002339B000B445B681360079B0133079342
:10699000079B012BEAD99DF80430C3F30103DBB256
:1069A000012B10D0022B1CD1BDF80A30ADF82630D7
:1069B000BDF80630C3F389139BB203339A08049BD6
:1069C0001344049313E0BDF80A30ADF82630BDF847
:1069D0000430C3F38313DBB21A46049B13440493BD
:1069E00005E00E494FF4BF7001F0CDFE00BF09482D
:1069F00002F0ADF90590059B002B02D0049B064ADE
:106A00005360BDF8263018460BB05DF804FB00BF9C
:106A1000A03C00209C3C00208838002018EC03009B
:106A200000B585B00021074802F0BAF80390039B37
:106A30000293029B83F310030193019B184605B058
:106A40005DF804FBA43C002000B589B003900291DE
:106A500001920093039B1B0C0793FFF7E1FF069045
:106A6000FFF788FE0246079B934204D3214940F278
:106A7000A31001F088FE069B1904009B5A1C0A9B78
:106A80001340079A0A431C4902339B000B445A6087
:106A9000009A0A9B134002339B00174A13440433A5
:106AA0000593039B03F00703D9B2059A137861F3AA
:106AB000C5031370019B03F00F03D9B2059A138825
:106AC00061F389131380029BC3F31501059A1368C0
:106AD00061F39F231360059A1378012161F3010389
:106AE0001370059A13786FF38203137000BF09B017
:106AF0005DF804FB18EC03008838002000B58DB069
:106B00000390029113468DF80730039B02330A93DA
:106B100001238DF8273000238DF81B300DF11B0366
:106B2000184601F0E3FD404B1A68029B1A603E4B89
:106B30009A683D4B59683C4B1B68CB1A1344013390
:106B40000B9314E00121394802F0B9F8FFF7DEFE9B
:106B500007900799354802F0B2F8334B9A68324BE8
:106B60005968314B1B68CB1A134401330B930A9AB3
:106B70000B9B9A42E6D89DF82730002B48D0002383
:106B800005939DF80730002B17D09DF81430012293
:106B900062F301038DF814309DF8143043F00403C0
:106BA0008DF81430039B03F00F03DAB2BDF81430F4
:106BB00062F38913ADF8143016E09DF81430022208
:106BC00062F301038DF814309DF8143043F0040390
:106BD0008DF81430039BC3F309039AB2BDF8163045
:106BE00062F38F13ADF816300F4B1A680E4B9B688B
:106BF000134002339B000C4A134404330893059A54
:106C0000089B1A60084B1A680A9B1344064A1360D3
:106C10009DF81B30184601F07FFD9DF8273018467F
:106C20000DB05DF804FB00BF88380020A43C0020B4
:106C300000B58BB005900491039202931F4B9B68A3
:106C4000079306AB012219460298FFF757FF034648
:106C5000002B24D0069B023309930023089311E0F4
:106C6000089B9B00039A1A44099B591C0991079998
:106C70000B401268114902339B000B445A60089B79
:106C800001330893089A029B9A42E9D3069A079B1C
:106C900000931346029A04990598FFF7D5FE074B17
:106CA00093F82034002B05D000BF00F093F8034682
:106CB000002BFAD100BF0BB05DF804FB8838002030
:106CC00000B583B001900091002300220099019843
:106CD000FFF7AEFF00BF03B05DF804FB00B587B05F
:106CE000039002910192019B059305AA0123029949
:106CF0000398FFF79DFF00BF07B05DF804FB00B5E8
:106D000087B00390029101920093019B0493009B32
:106D1000059304AA022302990398FFF789FF00BF95
:106D200007B05DF804FB00B589B0039002910192B1
:106D30000093019B0593009B06930A9B079305AA6A
:106D4000032302990398FFF773FF00BF09B05DF8B2
:106D500004FB00B589B00390029101920093019B5E
:106D60000493009B05930A9B06930B9B079304AA2D
:106D7000042302990398FFF75BFF00BF09B05DF899
:106D800004FB00B58BB00390029101920093019B2C
:106D90000593009B06930C9B07930D9B08930E9BFA
:106DA000099305AA052302990398FFF741FF00BF45
:106DB0000BB05DF804FB0000054B5A68044B1B68E0
:106DC0009A420CBF01230023DBB21846704700BF74
:106DD0008838002000B599B0FFF7EEFF0346002B7E
:106DE00001D00023BEE19B4B0022C3F81824BFF35F
:106DF0004F8F00BF974B5B680493964B9B68109333
:106E0000049A109B134002339B00924A13440433AC
:106E10001193002317930023169300230F9304ABC1
:106E200019461198FFF73AFD0346002B19D0894BFC
:106E3000D3F81834002B14D1864B1A68049B9A425D
:106E400005D8844B1B68834A536000238AE1049A67
:106E5000109B134002339B007E4A1344043311936A
:106E6000DDE70023159311E0049B5A1C0492109A4D
:106E70001340159A920001A90A44764902339B00F7
:106E80000B445B681360159B01331593159B012B15
:106E9000EAD99DF8043003F00303DBB2022B40F083
:106EA0009C80BDF80630C3F389139BB20D93BDF8E7
:106EB0000630C3F389139BB2502B28BF50239BB2DB
:106EC0000C930C9BC3F309039AB2BDF8063062F32E
:106ED0008F13ADF806300C9B08330B939DF80430EC
:106EE000C3F3C203DBB20F930B995B4802F01BFCA8
:106EF0001790179B002B00F0D180179802F0A4FC8C
:106F000001A9169B0822179802F05AFD169B083318
:106F10001693049BDA43109B134001339B000A93A2
:106F20000C9A0A9B9A4242D90A9B002B08D0049AD9
:106F3000109B134002339B00464A1344043300E085
:106F4000464B08930A9B002B02D00A9BDBB201E060
:106F50000C9BDBB28DF81F300A9B002B01D03F4BFE
:106F600000E0002306930A9B002B06D00C9BDAB2AC
:106F70000A9BDBB2D31ADBB200E000238DF8173096
:106F80009DF81F20169B0899179802F019FD9DF88F
:106F90001F30169A13441693069B002B16D09DF8AB
:106FA0001720169B0699179802F00AFD0EE0049A26
:106FB000109B134002339B00264A13440433099369
:106FC000169B0C9A0999179802F0FAFC0D9B033353
:106FD0009A08049B1344049360E09DF8043003F086
:106FE0000303DBB2012B59D1BDF80430C3F3831383
:106FF000DBB2062B28BF0623DAB2BDF8043062F3F9
:107000008913ADF80430BDF80430C3F38313DBB249
:1070100002330E939DF80430C3F3C203DBB20F9327
:107020000E9B9B0019460C4802F07DFB1790179BA6
:10703000002B33D0179802F007FC01A9169B0822F9
:10704000179802F0BDFC169B083316930023159386
:107050001BE000BF8838002008EB030094380020B4
:10706000049B5A1C0492109A134002339B003F4A1F
:107070001344191D169B0422179802F0A1FC169BBD
:1070800004331693159B01331593BDF80430C3F3F5
:107090008313DBB21A46159B9342E1D3179B002B57
:1070A00040D0324BD3F810341493304BD3F818340B
:1070B000002B1BD0179802F0D6FB4DE000238DF873
:1070C0004F301498FFF714FB0346002B02D0012326
:1070D0008DF84F309DF84F30002B03D0179914983E
:1070E000FFF7C2FA149BDB681B681493149B002BF8
:1070F000E4D1179802F0B7FB00238DF803300DF1AF
:107100000303184601F0F2FA184BD3F81834002B99
:1071100002D1049B154A53609DF80330184601F0D4
:10712000FBFA19E0114BD3F81034129306E01298D1
:10713000FFF7B4FA129BDB681B681293129B002BBB
:10714000F5D10B4A0B4BD31ADB081B0443F00203A7
:1071500009491846FFF7B4FDFFF72EFE034683F0FA
:107160000103DBB2184619B05DF804FB8838002033
:1071700040EA030008EA030080EC030000B585B094
:107180000023039323E0164BD3F81034029301231A
:107190008DF807300FE00298FFF799FA03461A4678
:1071A000039B934203D100238DF8073006E0029B36
:1071B000DB681B680293029B002BECD19DF8073023
:1071C000002B01D0039B07E0039B01330393039B38
:1071D000092BD8DD4FF0FF33184605B05DF804FBEE
:1071E0008838002000B585B001900B468DF803303B
:1071F000FFF7C4FF0390039BB3F1FF3F01D1039B53
:1072000022E0039BDBB219460198FFF753FA104BBB
:10721000D3F81034002B08D10D4A019BC2F810346A
:10722000019BDB6800221A600DE0094BD3F8103493
:10723000DA68019BDB6812681A60054BD3F81034DA
:10724000DB68019A1A60039B184605B05DF804FBE1
:107250008838002000B583B00D4BD3F8103401936B
:107260000B4B012283F8202409E00198FFF737FA3D
:107270000198FFF707FA019BDB681B680193019BEC
:10728000002BF2D100BF00BF03B05DF804FB00BFCC
:107290008838002082B00190009100BF02B0704792
:1072A00010B584B003900291039BDB88002B0AD0B9
:1072B000039BDB881A461F4B009313461E4A1F4947
:1072C000029801F081FE039B1B7A052B2ED0039BB5
:1072D0005B7A002B12D0039B9B881A46039B1B7A78
:1072E00019461046FFF7A2FA03461A46144B53F804
:1072F00022301A461349029801F066FE039B1B6870
:1073000019460298FFF7C6FF039B1B7A1A460E4BDD
:1073100053F82240039B9B8800211846FFF766FA2A
:10732000034622460949029801F04EFE00BF04B010
:1073300010BD00BFB4EC0300C4EC0300FCEC030080
:107340001830002014ED03000430002018ED030075
:1073500000B585B00390029113468DF80730039B6A
:107360001B7A052B0FD0039B5B7A002B06D00D4BAD
:107370001B681A460C49029801F026FE0B49029838
:1073800001F022FE07E09DF80730002B03D00749EB
:10739000029801F019FE029801F0F4FD00BF05B05B
:1073A0005DF804FB1830002014ED030024ED030009
:1073B00030B58BB007900691059204930E9B1B7B12
:1073C0008DF827300E9B00221A730E990498FFF750
:1073D00067FF059B062B7FD801A252F823F000BF60
:1073E000FD73020007740200177402002B74020080
:1073F0004974020071740200A174020007990E988A
:1074000001F0E2FD69E0069B1B681A4607990E9899
:1074100001F0DAFD61E0069B1A68069B04331B68E5
:1074200007990E9801F0D0FD57E0069B1A68069B5D
:1074300004331968069B08331B6800930B460799B1
:107440000E9801F0C1FD48E0069B1968069B0433C5
:107450001868069B08331B68069A0C321268019262
:10746000009303460A4607990E9801F0ADFD34E0FB
:10747000069B1868069B04331C68069B08331B6830
:10748000069A0C321268069910310968029101922D
:1074900000932346024607990E9801F095FD1CE0E3
:1074A000069B1C68069B04331D68069B08331B68FB
:1074B000069A0C3212680699103109680698143041
:1074C000006803900291019200932B46224607998F
:1074D0000E9801F079FD00E000BF00220E9904989B
:1074E000FFF736FF0E9B9DF827201A7300BF0BB0E5
:1074F00030BD00BF00B587B00390029101920093A8
:10750000029B082B60D8009B1B7B8DF81330009BDF
:1075100000221A7300990198FFF7C2FE0023059319
:1075200014E0059A029B9A4209D2039A059B1344E0
:107530001B781A462649009801F046FD03E02549CC
:10754000009801F041FD059B01330593059B072B36
:10755000E7D92149009801F037FD0023059326E083
:10756000059A029B9A421BD2039A059B13441B78EF
:107570008DF812309DF812307E2B0AD89DF812300B
:10758000184617F007F90346002B02D09DF8123079
:1075900000E02E231A461149009801F015FD03E082
:1075A0000F49009801F010FD059B01330593059BE1
:1075B000072BD5D9012200990198FFF7C9FE009B3E
:1075C0009DF813201A7300E000BF07B05DF804FBBC
:1075D00028ED030030ED030034ED030038ED030027
:1075E0003CED030084B003468DF807309DF807306A
:1075F0005B08DBB21A460D4B9B5C8DF80F309DF893
:10760000073003F00103002B04D09DF80F301B0955
:10761000DBB204E09DF80F3003F00F03DBB28DF80E
:107620000E309DF80E30184604B07047E03C002044
:1076300084B003460A468DF8073013468DF80630AD
:107640009DF8073003F00103002B01D00F2300E069
:10765000F0238DF80F309DF8073003F00103002B65
:1076600004D09DF806301B01DBB201E09DF8063026
:107670008DF80E309DF807305B08DBB21A46114BCF
:107680009A5C9DF807305B08DBB219469DF80F3015
:107690001340DAB20B4B5A549DF807305B08DBB24B
:1076A0001A46084B9A5C9DF807305B08DBB2194616
:1076B0009DF80E301343DAB2024B5A5400BF04B0A7
:1076C000704700BFE03C002000B585B003468DF850
:1076D00007300023039310E00F4B1A68039BDB0075
:1076E00013440293029B1B789DF807209A4201D114
:1076F000029B0DE0039B01330393084B1B781A4652
:10770000039B9342E8DB0649882001F03CF8002304
:10771000184605B05DF804FBAC3C0020B03C0020EE
:107720004CED030000B585B003460A468DF80730DE
:1077300013468DF806309DF807301846FFF7C4FF52
:107740000390039B002B0BD0039B5B68002B07D09F
:10775000039B5B689DF806109DF80720104698472C
:1077600000BF05B05DF804FB2DE9F04F87B003467C
:107770000A468DF80F3013468DF80E309DF80F3005
:107780001846FFF72FFF0346042B00F2C28001A228
:1077900052F823F0A97702001D7802003978020020
:1077A000697802007F7802009DF80E30002B00F00F
:1077B000AD809DF80F3001211846FFF739FF0023F7
:1077C0008DF817300DF11703184600F08FFF9DF864
:1077D0000F104FF001024FF00003A1F12004C1F19E
:1077E000200003FA01F702FA04F4274322FA00F01A
:1077F000074302FA01F6494BD3E9002346EA0201A6
:1078000000913B430193454BDDE90012C3E90012AF
:107810009DF81730184600F07FFF77E09DF80E3096
:10782000002B01D0022200E000229DF80F3011460B
:107830001846FFF7FDFE6CE09DF80E30002B0CD0D3
:107840009DF80F3003211846FFF7F2FE9DF80F3028
:1078500001211846FFF766FF5BE09DF80F3001211C
:107860001846FFF7E5FE54E09DF80E30002B4FD18F
:107870009DF80F3004211846FFF7DAFE48E09DF826
:107880000E30002B06D09DF80F3003211846FFF76D
:10789000CFFE3EE09DF80F3000211846FFF7C8FEEE
:1078A0009DF80F3000211846FFF73CFF00238DF8AC
:1078B00016300DF11603184600F018FF9DF80F1052
:1078C0004FF001024FF00003A1F12006C1F12000AA
:1078D00003FA01F502FA06F6354322FA00F00543F1
:1078E00002FA01F46FEA04086FEA05090B4BD3E9C9
:1078F000002308EA020A09EA030B084BC3E900ABBC
:107900009DF81630184600F007FF02E000BF00E0C7
:1079100000BF00BF07B0BDE8F08F00BFD83C00201B
:1079200000B583B00648074B1B685B080022194668
:1079300000F000FE019000BF03B05DF804FB00BF43
:10794000B83C0020B43C002000B587B00190002373
:10795000059328E01C4B1A68059BDB001344049335
:10796000049B1B78184605F017FF03468DF80F306F
:10797000049B5B78012B0CBF01230023DBB21A466A
:107980009DF80F309A420CBF012300238DF80E3072
:10799000049B1B789DF80E2011461846FFF7E4FE65
:1079A000059B01330593094B1B781A46059B9342AF
:1079B000D0DB074BD3E90023134301D0FFF7B0FF1F
:1079C00000BF07B05DF804FBAC3C0020B03C0020D9
:1079D000D83C002000B585B001900B468DF80330EF
:1079E000019BDBB21846FFF76FFE0390039B1B78E9
:1079F000184605F0D1FE03468DF80B30039B5B78EB
:107A0000012B0CBF01230023DBB21A469DF80B307B
:107A10009A420CBF012300238DF80A309DF80A30EA
:107A2000002B06D0054BD3E90023134301D1FFF708
:107A300077FF00BF05B05DF804FB00BFD83C002015
:107A400000B58BB003900B4601928DF80B30019B73
:107A5000092B01D8072367E005F052FD034683F0A8
:107A60000103DBB2002B09D005F0F8FC0990099B5B
:107A70000893089B002B01D0089B55E02C4A039BE0
:107A800013602C4A9DF80B3013702B4A019B136036
:107A900010220021294816F0DEFE29494FF000028D
:107AA0004FF00003C1E9002331E09DF80B30DB000B
:107AB000039A1344079303238DF8143000238DF8A1
:107AC00015309DF816306FF300038DF816309DF8D1
:107AD00016306FF341038DF816309DF816306FF3B2
:107AE00082038DF81630079B9B788DF81530079B25
:107AF0001B78184605AB134A194605F00DFD099091
:107B0000099B0693069B002B01D0069B0CE09DF879
:107B10000B305A1E8DF80B20002BC6D10A4A0021CB
:107B20000A4800F0D3FC034618460BB05DF804FB8E
:107B3000AC3C0020B03C0020B43C0020E03C0020E5
:107B4000D83C0020D579020049790200ACED030051
:107B500000B583B0114B1B68002B04D1104940F2D3
:107B6000351000F010FE002301930CE00B4B1A6857
:107B7000019BDB0013441B780121184605F046FDEC
:107B8000019B01330193074B1B781A46019B9342DB
:107B9000ECD30023184603B05DF804FBAC3C002096
:107BA0004CED0300B03C002000B583B01D4B1B68BA
:107BB000002B04D11C4940F2431000F0E4FD0023E7
:107BC00001930BE0174B1A68019BDB0013441B78F1
:107BD000184605F0A3FD019B01330193134B1B785D
:107BE0001A46019B9342EDD300238DF803300DF12B
:107BF0000303184600F07AFD0D494FF000024FF0E4
:107C00000003C1E900239DF80330184600F084FD0D
:107C1000084B184600F0C4FC0346184603B05DF854
:107C200004FB00BFAC3C00204CED0300B03C002046
:107C3000D83C0020B83C002086B00390029101920D
:107C400001238DF817309DF81730214A039B1360EC
:107C50001F4A029B53601E4A019B9360039B44F2A0
:107C60000102934213D0039B44F20202934221D1BA
:107C7000019B174AD360164BDB681B881A46144BCE
:107C80009A61134BDB685B68114AD36112E0019B78
:107C90000F4A13610E4B1B699B680D4A53610C4BD5
:107CA0001B691B680A4A9361094B1B695B68084A98
:107CB000D36100BF72B600BF00BF9DF81730DBB2C2
:107CC000002BFAD162B600BF00BF06B0704700BFFC
:107CD000F03C002000B583B002900091019244F284
:107CE000010071466A4600F003F803B000BD00BF12
:107CF00030B58BB007900691059272B600BFFFF7C2
:107D0000A9FA00BFFFF766F80346002BFAD1079BDC
:107D100044F2020293422FD0079B44F202029342A4
:107D200069D8079B44F20102934237D0079B44F283
:107D3000010293425FD8079B012B05D0079B41F2BC
:107D4000010293420CD056E0394A3A4BD31ADB0871
:107D50001B0443F0010338491846FEF7B1FF57E012
:107D6000334A344BD31ADB081B0443F00103334975
:107D70001846FEF7A5FF4BE0059B09932C4A2D4BB7
:107D8000D31ADB081B0443F00100099B5B681A4609
:107D9000099B1B882A49FEF7B2FF39E0059B08932F
:107DA000234A244BD31ADB081B0443F00104089B2D
:107DB0009D68089B9B68184601F0FEFF0346184625
:107DC000089B5B681946089B1B68069A0292019300
:107DD000009103462A461B492046FEF7D2FF144A6B
:107DE000144BD31ADB081B0443F001031649184651
:107DF000FEF766FF0CE00E4A0E4BD31ADB081B049D
:107E000043F00103069A11491846FEF767FF00BFC9
:107E10000F4B1B6803F00103002B00D000BE059A36
:107E200006990798FFF708FF00BF0BB030BD00BFF1
:107E300040EA030008EA0300B0ED0300D0ED0300C0
:107E4000F4ED030010EE030038EE03004CEE0300E7
:107E5000F0ED00E082B00190019B03F00303002BE2
:107E60000CBF01230023DBB2184602B070470000AC
:107E700000B585B003460092ADF806300B46ADF86C
:107E80000430BDF8043001339BB2DB00ADF80E3096
:107E90000098FFF7DFFF034683F00103DBB2002BFE
:107EA00001D0072317E00E4A009B1360BDF80E3087
:107EB000009A13440B4A13600B4B00221A700B4BB1
:107EC00000221A700A4ABDF806301380094ABDF82C
:107ED000043013800023184605B05DF804FB00BF92
:107EE000103D0020143D0020193D0020183D0020C9
:107EF0001A3D00201C3D0020F0B583B0124806F06A
:107F000021FF034618464FF00001104BD3E9002330
:107F1000861841EB0307CDE900670D4BD3E9002339
:107F2000DDE90001994208BF904207D2DDE9002354
:107F300012F1807443F10005CDE90045DDE900232D
:107F40001046194603B0F0BD3C300020283D00200B
:107F5000303D002088B001900091019B0793009B69
:107F60000693079BD3E90223CDE90423069BD3E9BB
:107F70000223CDE90223DDE90423DDE90201994270
:107F800008BF90422CBF01230023DBB2184608B083
:107F90007047000030B585B00190019B5B69002BF4
:107FA00003D12B49A22000F0EEFB00238DF80F3007
:107FB000284B1B78002B45D0019B002B42D0019B06
:107FC0001B7FDBB2002B3DD0FFF796FF019BD3E96F
:107FD0000223994208BF90422CD3019B1B69002BBE
:107FE00002D1019B00221A77019B5B69019A926979
:107FF00010469847019B1B69002B23D0019B1B7FD8
:10800000DBB2002B1ED0019BD3E90201019B1B694F
:108010001A464FF00003841841EB0305019BC3E9A6
:108020000245019B19460C4801F020FE01238DF802
:108030000F3007E0019B1946074801F017FE0123A6
:108040008DF80F309DF80F30184605B030BD00BFD9
:1080500070EE0300243D0020D4EE0300F0B589B09B
:10806000019000910D230793009B00221A70019B41
:10807000D3E90245FFF740FF02460B46A61A65EB1F
:108080000307CDE90467DDE90423012A73F1000346
:108090001BDB049BB3F5350F05D300F0A9FA0246AC
:1080A000154B134403E0019BD3E9022313460393CA
:1080B0004FF49603039A0021104806F045FD0790FF
:1080C000079B002B05D1012313E000210B4806F08C
:1080D00013FE079B0D2B07D10198FFF75BFF0346AB
:1080E0001A46009B1A7003E00549F52000F04BFB8F
:1080F0000023184609B0F0BDFFFFB4003C3000205B
:1081000070EE030000B583B0044801F0E9FD019072
:10811000019B184603B05DF804FB00BFD4EE0300DA
:1081200000B583B0044801F0FDFD0190019B1846A5
:1081300003B05DF804FB00BFD4EE030000B583B0CC
:10814000FFF7E0FF0190019B002B02D0019B002272
:108150001A77019B002BF3D100BF00BF03B05DF87D
:1081600004FB0000054BD3E9002312F1807043F1BA
:108170000001024BC3E9000100BF7047283D002009
:1081800000B583B00190134B1B68002B1DD00198E4
:1081900006F0D8FD0F4B1B68D3E90223134623F0EA
:1081A0007F43194600F018FA0346B3F5960F04D33F
:1081B00009494FF4957000F0E6FA064B1B68184623
:1081C000FFF7E8FE034B00221A6000BF03B05DF822
:1081D00004FB00BF203D002070EE030000B583B01B
:1081E0000190FFF789FE02460B460349C1E90023CF
:1081F00000BF03B05DF804FB303D002000B585B042
:108200000190FFF78DFF039000238DF80B30039B47
:10821000002B48D02B4B1B68002B03D101238DF87A
:108220000B3019E0039BD3E90201264B1B68D3E90D
:108230000223994208BF90420ED201238DF80B30E1
:10824000204B1B681B7FDBB2002B05D01D4B1B682E
:1082500019461D4801F00AFD9DF80B30002B2AD06D
:10826000FFF750FF03900DF10A0319460398FFF73B
:10827000F5FE0346002B12D0124B1B68002B02D1D7
:10828000019806F06DFB0F4A039B13609DF80A30BE
:1082900083F00103DBB2002BB3D000BF0EE0094B2B
:1082A00000221A60ADE7074B1B68002B05D101982F
:1082B00006F06CFB01E000BF00E000BF00BF05B0AE
:1082C0005DF804FB203D0020D4EE030000B587B02C
:1082D00001902C4A03AB1946104600F078FB05903C
:1082E00048E0059B1B78022B2ED0022B32DC002BA2
:1082F00002D0012B14D02DE0059B5B681B7FDBB205
:1083000083F00103DBB2002B26D0059B5B680122C2
:108310001A77059B5B6819461B4801F0A7FC1BE018
:10832000059B5A68194B1B689A4203D1174B0022D0
:108330001A6012E0059B5B681946134801F006FDC0
:1083400003468DF8133008E0FFF7F8FE104B0122CA
:108350001A7002E000BF00E000BF0A4A03AB1946F2
:10836000104600F04DFB074A03AB1946104600F0DB
:108370002EFB0590059B002BB3D100BF00BF07B0BB
:108380005DF804FB903D0020D4EE0300203D00206A
:10839000243D002000B583B00190019806F09FFCB9
:1083A0000346002B01D0FFF7DDFE0021019806F007
:1083B000B4FC0346002B02D00198FFF7E1FE012137
:1083C000019806F0AAFC0346002B02D00198FFF7A3
:1083D00005FF0198FFF77AFF0198FFF70FFF00BF35
:1083E00003B05DF804FB000008B5024806F0B7FCD6
:1083F00000BF08BD3C30002000B585B003460091A9
:108400008DF80730114A02AB1946104600F0B2FA57
:108410000390039B002B13D0039B9DF807201A7039
:10842000039B009A5A60094A02AB1946104600F0B5
:10843000BAFA0346002B01D0FFF7D6FF002300E075
:108440000423184605B05DF804FB00BF903D0020F2
:1084500000B583B0164B1B680093164808235822BA
:10846000154900F040FA0190019B002B01D0019BBF
:1084700019E06B46114A1946114806F0F3F90190CC
:10848000019B002B01D0019B0DE001210C4806F05F
:1084900015FC01230B4A0121094806F08DFA0A4B0D
:1084A00001221A70019B184603B05DF804FB00BF5F
:1084B000D0EE0300903D0020383D0020958302005F
:1084C0003C300020FFFF7F00243D002000B587B036
:1084D00003900B4601928DF80B30039B002B04D1C7
:1084E000134940F22E2000F04EF9019B002B04D1DD
:1084F0000F4940F22F2000F046F9019B002B01D1DB
:10850000072310E0039B1B680593059B019A5A61A2
:108510009DF80B30012B0CBF01230023DBB21A4660
:10852000059B1A610023184607B05DF804FB00BFE5
:1085300070EE030030B587B0039002910192039B67
:10854000002B04D1154940F23E2000F01CF9039B9A
:108550000593059B1B7FDBB2002B01D000231AE0A3
:10856000059B019A9A61FFF7C7FC029B1A464FF0E0
:108570000003841841EB0305059BC3E90245059BF5
:108580001B69002B02D0059B029A1A6105990020F5
:10859000FFF732FF0346184607B030BD70EE030008
:1085A00000B585B00190019B002B04D109494FF41F
:1085B000157000F0E8F8019B0393039B00221A77E3
:1085C00003990120FFF718FF0346184605B05DF830
:1085D00004FB00BF70EE030082B001900091019A8D
:1085E000009BD31A23F07F43184602B07047000067
:1085F00008B5034806F0A6FB0346184608BD00BFB1
:108600003C30002082B0EFF310830093009B019375
:1086100072B600BF019B184602B0704762B600BF39
:1086200000BF704700B585B00190FFF7EBFF0390E6
:10863000164B9B68002B1BD1144B01229A60144BE4
:10864000D3F88020134B1340104A1360104B114A8B
:10865000C3F880200E4BD3F884300C4A53600C4B87
:108660004FF0FF32C3F88420019B00221A7002E011
:10867000019B01221A70039B002B01D1FFF7CEFF53
:108680000023184605B05DF804FB00BFA43D0020A0
:1086900000E100E0FC06FFBD00B585B003468DF8A3
:1086A0000730104B9B68002B16D09DF80730002B2D
:1086B00012D1FFF7A7FF03900B4A0A4B1B68136008
:1086C000094A084B5B685360064B00229A60039B83
:1086D000002B01D1FFF7A2FF0023184605B05DF87B
:1086E00004FB00BFA43D002000E100E000B583B022
:1086F000019000F02BF80346012B03D005494320DD
:1087000000F041F80198FFF78DFF00BF03B05DF85E
:1087100004FB00BFE0EE030000B583B003468DF814
:10872000073000F013F80346012B03D0064951200F
:1087300000F029F89DF807301846FFF7ADFF00BF9D
:1087400003B05DF804FB00BFE0EE030084B0EFF37C
:1087500005830193019BC3F308030393039B002B41
:108760000DD1EFF314830093009B0293029B03F05F
:108770000103002B0CBF01230023DBB200E0012327
:10878000184604B0704700B585B003460091ADF8B7
:108790000630BDF80630ADF80830009B039302ABFD
:1087A0001A46002144F20200FFF7A2FA00BF05B00A
:1087B0005DF804FB86B001900091019B53E8011F16
:1087C0008AB2D88902449889824228BF121A18892D
:1087D000824202BFBFF32F8F002307E0C2EA0102EB
:1087E00043E801200028E9D14FF001038DF80F3054
:1087F000059002910492029A009B1A609DF80F3036
:10880000DBB2184606B0704784B00190019951E878
:10881000013FC3EA034341E80132002AF7D1039242
:10882000029300BF04B0704786B001900091019B95
:1088300053E8021F1FFAA1F2D888824202BFBFF399
:108840002F8F00230DE0D88902449889824228BFE7
:10885000121AC1EA024243E802200028E8D14FF090
:1088600001038DF80F30059002910492029A009B4B
:108870001A609DF80F30DBB2184606B0704784B01E
:108880000190019951E8023FC3EA234341E80232D3
:10889000002AF7D10392029300BF04B0704786B05C
:1088A0000190019B53E8021FDA88B1EB314F4FF082
:1088B000000017BF89B242EA024241EA024204E0E4
:1088C0005968B1EB314F08BF012043E8022100296C
:1088D000E8D18DF80F00059104929DF80F30DBB2BE
:1088E000184606B0704784B00390029111461A46AC
:1088F0000B46ADF806301346ADF80430029B002B52
:1089000001D10E231FE0BDF80630BDF80420B3FBF3
:10891000F2F102FB01F29B1A9BB2002B01D009235A
:1089200011E0039B029A1A60039B00225A60039B8A
:1089300000229A60039BBDF806209A81039BBDF834
:108940000420DA810023184604B0704700B585B0D2
:1089500001900198FFF7A3FF03468DF80F309DF8B3
:108960000F30002B01D0002300E01123184605B082
:108970005DF804FB00B585B001900091009B19469D
:108980000198FFF717FF0346002B07D0019B1B68D8
:10899000009A128813440393039B00E000231846B7
:1089A00005B05DF804FB00B583B001900091009B19
:1089B0001A88009B5B889A4204D10198FFF724FF34
:1089C000012300E00023184603B05DF804FB00B566
:1089D00085B001900091009B19460198FFF724FF94
:1089E0000346002B07D0019B1B68009A5288134452
:1089F0000393039B00E00023184605B05DF804FBD9
:108A000000B583B001900091009B1A88009B5B88A1
:108A10009A4204D10198FFF732FF012300E00023BE
:108A2000184603B05DF804FB00B585B001900091D5
:108A3000009B5B099B00019A1A44009B03F01F03F3
:108A4000012101FA03F31946104600F0D8F803900B
:108A500000BF05B05DF804FB00B583B00190009144
:108A6000009B5B099B00019A1A44009B03F01F03C3
:108A7000012101FA03F31946104600F0A8F8024656
:108A8000009B03F01F0322FA03F303F00103002B02
:108A900014BF01230023DBB2184603B05DF804FBCA
:108AA00000B585B001900091009B5B099B00019A85
:108AB0001A44009B03F01F03012101FA03F3DB4377
:108AC0001946104600F0CBF8039000BF05B05DF8E2
:108AD00004FB82B001900091009B5B099B00019A0E
:108AE00013441A68009B03F01F0322FA03F303F0F8
:108AF0000103002B14BF01230023DBB2184602B090
:108B0000704700B58BB001900091002309933BE0C2
:108B1000099B9B00019A13441B68DB430693069B49
:108B200093FAA3F30593059BB3FA83F3089323E029
:108B3000099B5B01089A13440793079A009B9A428A
:108B40001ED207990198FFF787FF034683F00103C0
:108B5000DBB2002B01D0079B1EE0099B9B00019A12
:108B600013441B68DB430493049B93FAA3F303931E
:108B7000039BB3FA83F30893089B1F2BD8D900E01B
:108B800000BF099B01330993009B013B5B09013343
:108B9000099A9A42BCD3009B18460BB05DF804FBBF
:108BA00010B487B001900091019B009A53E8004FE8
:108BB000104643E8000191F0000FF7D105940490AE
:108BC0000391059B184607B05DF8044B704710B43D
:108BD00087B001900091019B009A53E8004F44EA4E
:108BE000020043E8000191F0000FF6D105940490D3
:108BF0000391059B184607B05DF8044B704710B40D
:108C000087B001900091019B009A53E8004F44EA1D
:108C1000020043E8000191F0000FF6D105940490A2
:108C20000391049B184607B05DF8044B704710B4DD
:108C300087B001900091019B009A53E8004F04EA2D
:108C4000020043E8000191F0000FF6D10594049072
:108C50000391059B184607B05DF8044B704710B4AC
:108C600087B001900091019B009A53E8004F04EAFD
:108C7000020043E8000191F0000FF6D10594049042
:108C80000391049B184607B05DF8044B704710B47D
:108C900087B001900091019B009A53E8004F04EBCC
:108CA000020043E8000191F0000FF6D10594049012
:108CB0000391059B184607B05DF8044B704710B44C
:108CC00087B001900091019B009A53E8004F04EB9C
:108CD000020043E8000191F0000FF6D105940490E2
:108CE0000391049B184607B05DF8044B704710B41D
:108CF00087B001900091019B009A53E8004FA4EBCC
:108D0000020043E8000191F0000FF6D105940490B1
:108D10000391049B184607B05DF8044B704700B5FB
:108D200083B0019001210198FFF751FF03461846D7
:108D300003B05DF804FB00B583B0019001210198F8
:108D4000FFF75DFF0346184603B05DF804FB00B56E
:108D500083B0019000210198FFF769FF0346184690
:108D600003B05DF804FB000000B583B001900B4632
:108D70008DF80330019B002B03D10849E820FFF751
:108D800002FD019BDA689DF803300199098A01FB15
:108D900003F31344184603B05DF804FB48EF0300E7
:108DA00000B583B001900091019B002B03D10849CD
:108DB000F520FFF7E8FC009B019AD2689B1A019A04
:108DC000128AB3FBF2F3DBB2184603B05DF804FB82
:108DD00048EF030000B585B00190019B002B01D145
:108DE0000E234CE0019B1B68002B03D12649FF207A
:108DF000FFF7C9FC019B5B68002B04D122494FF4AB
:108E00008070FFF7C0FC019B9B68002B04D11E49BA
:108E100040F20110FFF7B7FC019BDB68002B04D187
:108E200019494FF48170FFF7AEFC019B1B8A002BA0
:108E300004D1154940F20310FFF7A5FC019B9A6885
:108E4000019B5B68D31A8DF80F30019B1B68019A58
:108E500052681A6007E0019B1A681368591C116078
:108E60009DF80F201A709DF80F305A1E8DF80F20B4
:108E7000002BF0D1019B1B6800221A7100231846B9
:108E800005B05DF804FB00BF48EF030000B585B0F6
:108E90000190019B002B04D11F494FF49270FFF702
:108EA00072FC0023039300238DF80A300DF10A03AE
:108EB0001846FFF71BFC019B1B681A68019B5B6847
:108EC0009A421FD9019B1B681A68013A1A601B68F5
:108ED0001B7819460198FFF747FF0390019B9A689A
:108EE000019B1B681B68D31A8DF80B30019B1B6814
:108EF0001B799DF80B209A4204D9019B1B689DF8B1
:108F00000B201A719DF80A301846FFF705FC039BE9
:108F1000184605B05DF804FB48EF030010B584B0B7
:108F200001900091019B002B04D1154940F247109C
:108F3000FFF729FC009B002B04D111494FF4A470CA
:108F4000FFF721FC009B039300238DF80B300DF1FC
:108F50000B031846FFF7CAFB019B1B681C68621CC9
:108F60001A6003990198FFF71BFF034623709DF8D1
:108F70000B301846FFF7D0FB00BF04B010BD00BF98
:108F800048EF030000B583B00190019B002B03D193
:108F90000C493120FFF7F7FB019B9B68002B0CD09D
:108FA000019B5B69019A1069019A1168019A9268A4
:108FB0009847019B00229A6000E000BF03B05DF873
:108FC00004FB00BFA8EF03000EB400B584B001900D
:108FD000019B002B03D118494220FFF7D4FB019BD2
:108FE0005B69002B03D114494320FFF7CCFB019BA5
:108FF0001B68002B03D110494420FFF7C4FB019BE1
:109000005B68002B03D10C494520FFF7BCFB059B97
:10901000002B0AD00023039306AB039303AB1A463D
:109020000599019800F0B0F900E000BF04B05DF8C8
:1090300004EB03B0704700BFA8EF030000B583B096
:1090400001900B468DF80330019B1A68019B9B68C9
:10905000581C0199886013449DF803201A70019BE5
:109060009A68019B5B689A4202D30198FFF78AFFD6
:1090700000BF03B05DF804FB00B587B00390029118
:109080000192009300230593009B03F00103002B42
:1090900024D00BE0029B01330293059B013305931F
:1090A0009DF8133019460398FFF7C8FF029B1B7801
:1090B0008DF813309DF81330002BEBD106E0019BA7
:1090C000013B019320210398FFF7B8FF019A059B0C
:1090D0009A422ED9019B002BF1D12AE0029B002B52
:1090E0000BD0029815F00CFC059006E0019B013BAB
:1090F000019320210398FFF7A1FF019A059B9A4253
:109100000FD9019B002BF1D10BE0029B013302939D
:10911000059B013305939DF8133019460398FFF71B
:109120008DFF029B1B788DF813309DF81330002BB8
:10913000EBD100BF07B05DF804FB000000B589B0BB
:109140000390029101920093029B079301230693DF
:1091500007E0079A019BB2FBF3F30793069B0133E9
:109160000693079A019B9A42F3D2009A069B9A4271
:1091700001D9009B06930B9B03F00103002B22D126
:109180000A9B002B1FD00B9B03F00203002B06D081
:10919000009B002B03D130238DF8173002E02023F1
:1091A0008DF8173008E00A9B013B0A939DF81730B1
:1091B00019460398FFF742FF0A9B002B03D0069A3B
:1091C0000A9B9A42EFD301230793009B012B03D9FB
:1091D000009B013B009309E0029A079BB2FBF3F36B
:1091E0000493049A019B9A4200D205E0079B019ADE
:1091F00002FB03F30793E8E7029A079BB2FBF3F342
:109200000493049B079A02FB03F3029AD31A029376
:10921000154A049B13441B7819460398FFF70EFF69
:10922000079A019BB2FBF3F30793079B002BE3D153
:109230000B9B03F00103002B11D00A9B002B0ED0D7
:1092400006E00A9B013B0A9320210398FFF7F6FEF4
:109250000A9B002B03D0069A0A9B9A42F1D300BFC7
:1092600009B05DF804FB00BF74F0030000B589B0DD
:109270000590049103920293049B002BB8BF5B42BC
:1092800006930123079307E0039B069A92FBF3F3EF
:109290000693079B01330793039B069A9A42F3DADE
:1092A000029A079B9A4201D9029B07930A9B002BC3
:1092B0000AD0049B002B04DB0B9B03F00403002B60
:1092C00002D00A9B013B0A930B9B03F00203002B85
:1092D00002D0029B002B16D00B9B03F00103002B46
:1092E00011D10A9B002B0ED006E00A9B013B0A938A
:1092F00020210598FFF7A2FE0A9B002B03D0079AB6
:109300000A9B9A42F1D3049B002B07DA049B5B4231
:1093100004932D210598FFF791FE08E00B9B03F0C5
:109320000403002B03D02B210598FFF787FE0B9B2E
:1093300003F00203002B19D00B9B03F00103002B59
:1093400014D1029B002B11D10A9B002B0ED006E0FA
:109350000A9B013B0A9330210598FFF76FFE0A9B99
:10936000002B03D0079A0A9B9A42F1D304990B9BD6
:1093700001930A9B0093029B039A0598FFF7DEFE78
:1093800000BF09B05DF804FB00B58FB005900491F3
:109390000392059B002B04D1B64940F25220FFF7FF
:1093A000F2F9059B5B69002B04D1B2494FF41570AB
:1093B000FFF7E9F9059B1B68002B04D1AD4940F28A
:1093C0005520FFF7E0F9059B5B68002B04D1A94904
:1093D00040F25620FFF7D7F9049B002B00F0938151
:1093E000049B1B788DF83730049B013304939DF860
:1093F0003730002B00F07E819DF83730252B40F070
:109400006D8100230A9301230C93049B1B788DF834
:1094100037309DF83730302B0DD0302B1BDC2B2B09
:1094200011D02D2B17D10A9B43F001030A93049B03
:109430000133049312E00A9B43F002030A93049B56
:10944000013304930AE00A9B43F004030A93049B4C
:109450000133049302E000230C9300BF0C9B002B0C
:10946000D3D1002309939DF837302A2B0CD1039BCD
:109470001B68191D039A11601B68099A134409930C
:10948000049B013304931AE0049B1B788DF837305A
:109490009DF837302F2B12D99DF83730392B0ED845
:1094A000049B01330493099A13469B0013445B0009
:1094B0001A469DF837301344303B0993D3E7002315
:1094C0000B93049B1B788DF837309DF837302E2B8B
:1094D0001DD1049B01330493049B1B788DF8373016
:1094E0009DF837302F2B12D99DF83730392B0ED8F5
:1094F000049B013304930B9A13469B0013445B00B7
:109500001A469DF837301344303B0B93E4E7049B35
:109510001B788DF837309DF837306C2B03D09DF8D1
:109520003730682B07D1049B01330493049B1B78CD
:109530008DF83730EFE79DF83730252B00F0C480E9
:10954000252BC0F2C680782B00F3C380582BC0F2C5
:10955000C080583B202B00F2BC8001A252F823F0BF
:109560004F960200D3960200D3960200D3960200D3
:10957000D3960200D3960200D3960200D39602003F
:10958000D3960200D3960200D3960200E59502001E
:1095900007960200D3960200D3960200D3960200EB
:1095A000D396020007960200D3960200D3960200DB
:1095B000D3960200D3960200D3960200D3960200FF
:1095C00095960200D3960200D39602007996020087
:1095D000D39602002B960200D3960200D396020087
:1095E0004F960200039B1B68191D039A11601B68AC
:1095F0000C930C9B8DF81F309DF81F301946059871
:10960000FFF71CFD66E0039B1B68191D039A1160A0
:109610001B680C930A9B0193099B00930B9B0A22E6
:109620000C990598FFF722FE54E0039B1B68191D57
:10963000039A11601B680C930C990A9B0193099B78
:1096400000930B9B0A220598FFF778FD42E0039BED
:109650001B68191D039A11601B680C930C990A9BD7
:109660000193099B00930B9B10220598FFF766FD61
:1096700030E000BF0CF00300039B1B68191D039A28
:1096800011601B6808930A9B099A08990598FFF7CF
:10969000F3FC1FE0039B1B68191D039A11601B68F4
:1096A0000C9330210598FFF7C9FC78210598FFF746
:1096B000C5FC0C9900230193082300930823102272
:1096C0000598FFF73BFD05E025210598FFF7B6FC5F
:1096D00000E000BF049B0133049305E09DF83730A0
:1096E00019460598FFF7AAFC049B1B78002B7FF412
:1096F00077AE00E000BF059B1B7B002B04D00598D4
:10970000FFF740FC00E000BF0FB05DF804FB00BFB6
:1097100000B583B001900198FFF75CFB0346184643
:1097200003B05DF804FB00B58BB001900091019B84
:109730001B8A043B0793009A079B1344DA1C079B80
:10974000B2FBF3F38DF81B300198FFF79FFB0590F8
:10975000059B002B01D1002338E0059B00221A71E4
:10976000059B01225A71079B9AB2059BDA80059BE3
:1097700009939DF81B30013B0493099B019A1A60E1
:10978000002308931DE00198FFF780FB0390039BE3
:10979000002B0ED0059B5B790133DAB2059B5A7121
:1097A000099B039A1A60039B019A1A60039B099311
:1097B00004E0059800F00EF8002307E0089B013351
:1097C0000893089A049B9A42DDD3059B18460BB078
:1097D0005DF804FB00B58BB00190019B0793079BDC
:1097E0005B798DF81B30019B08939DF81B30013B82
:1097F00005930023099305E0089B1B680893099BC8
:1098000001330993099A059B9A42F5D3089B1B687B
:109810000493019B0893002309930BE0089B1B68AA
:10982000039308990498FFF779FB039B0893099B1E
:10983000013309939DF81B30099A9A42EED300BF79
:1098400000BF0BB05DF804FB00B585B00190019B33
:109850000393039B043301211846FFF730FA00BF3E
:1098600005B05DF804FB00B587B00190019B05933E
:10987000059B043301211846FFF739FA0346039389
:1098800003AB0493049B1B78002B02D10198FFF7D4
:10989000A1FF00BF07B05DF804FB000000B591B068
:1098A0000390029101920093039B002B03D1434943
:1098B000B620FEF768FF039B0993039B0F93099B58
:1098C000DB881A46099B5B7903FB02F3043B089390
:1098D000009A089B9A4203D33849C420FEF753FFED
:1098E000099BDB880793009B1A1D079BB2FBF3F3D0
:1098F0000E93009B0433079AB3FBF2F2079901FB26
:1099000002F29B1A0D93019B1A68009B1344089A5C
:109910009A4203D2089A009BD31A01E0019B1B686C
:109920000C93019B0C9A1A6005E00F9B1B680F9328
:109930000E9B013B0E930E9B002BF6D100230B9345
:10994000079A0D9BD31A0A930A9A0C9B934228BF3D
:1099500013460A932AE0029A0B9B134406930F9A2C
:109960000D9B1344043305939DF84830002B05D01C
:109970000A9A0599069814F045FF04E00A9A069998
:10998000059814F03FFF00230D930F9B1B680F9366
:109990000C9A0A9BD31A0C930B9A0A9B13440B93B1
:1099A000079A0C9B934228BF13460A930C9B002BEB
:1099B000D1D100BF00BF11B05DF804FB84F00300FB
:1099C00000B589B00590049103920293039B07931D
:1099D00007AA00230093029B04990598FFF75EFFF6
:1099E000079B039A9A4203D00349F620FEF7CBFE69
:1099F00000BF09B05DF804FB84F0030000B589B036
:109A00000590049103920293039B079307AA0123F5
:109A10000093029B04990598FFF740FF079B039A68
:109A20009A4204D004494FF48070FEF7ACFE00BFA8
:109A300009B05DF804FB00BF84F0030082B0034668
:109A40008DF807309DF8073003F01F0206499DF995
:109A500007305B09012000FA02F2603341F823204D
:109A600000BF02B0704700BF00E100E000B583B066
:109A70000190019B002B03D106497220FEF783FE63
:109A8000019B00221A60BFF35F8F00BF00BF03B0CD
:109A90005DF804FB60F1030041DF704700BF18462A
:109AA00000B585B000238DF803300DF1030318468F
:109AB000FEF71CFEF1EE103A0193019B0393039B0A
:109AC00023F09F030293029BE1EE103A00BFBFF325
:109AD0005F8F00BF2620FFF7B1FF9DF803301846C7
:109AE000FEF71AFE039B03F00703002B03D0044983
:109AF0007D20FEF748FE00BF05B05DF804FB00BF07
:109B0000C8F1030008B5064B00221A700548FFF79C
:109B1000ADFF0549054800F04DF80023184608BD83
:109B2000B43D0020B03D00202CF20300B83D0020E1
:109B300000B583B0FFF7B4FF11F07EFD0346002BA4
:109B40000ED0FFF7A9FF0190019B002B0ED0019BC7
:109B5000022B0BD007494FF4B070FEF714FE05E05E
:109B600020BF00BF40BF00BF20BF00BF00BF03B089
:109B70005DF804FBC8F1030082B00190019B9B6873
:109B800000229A60019B9B6800221A61019B9B68DE
:109B900000225A61019B9B680022DA60019B9B684E
:109BA00000225A60019B9B6800221A6000BF02B02D
:109BB0007047000000B583B001900091019B002B1D
:109BC00003D110495020FEF7DEFD009B002B03D18E
:109BD0000C495120FEF7D7FD019B009A1A60019BAA
:109BE0001B681A68019B5A60019B5A68019B1B689D
:109BF0005B689A4202D1019B00225A6000BF03B009
:109C00005DF804FB38F2030000B583B00190019BBE
:109C1000002B03D114496320FEF7B5FD019B1B689F
:109C2000002B03D110496420FEF7ADFD019B5B685A
:109C3000002B14D0019B5B681A46019B1B689B6834
:109C400013441A46019B5A60019B5A68019B1B688A
:109C50005B689A4204D1019B00225A6000E000BF79
:109C600003B05DF804FB00BF38F2030000B585B017
:109C700001900091019B002B03D118493A20FEF777
:109C800082FD009B002B03D114493B20FEF77BFD96
:109C9000019B5B6803930FE0019B9B68039A12682A
:109CA000009910469847034683F00103DBB2002B6E
:109CB00007D1039B1B680393039B1B68002BEBD10D
:109CC00000E000BF039B1A68009B1A60039B009A88
:109CD0001A6000BF05B05DF804FB00BFC0F20300CE
:109CE00000B585B00190019B002B03D10C49512098
:109CF000FEF749FD019B5B681B680393019B5B6852
:109D00001B68002B06D0019B5B681A68019B5B688F
:109D100012681A60039B184605B05DF804FB00BF8B
:109D2000C0F2030000B583B00190019B002B03D16A
:109D300005495D20FEF727FD019B5B681B681846FF
:109D400003B05DF804FB00BFC0F2030000B585B0AE
:109D500001900091019B002B03D116496920FEF769
:109D600012FD009B002B03D112496A20FEF70BFD68
:109D700000238DF80B30019B5B6803930FE0039B7E
:109D80001B68009A9A4207D1009B1A68039B1A60CD
:109D900001238DF80B3006E0039B1B680393039BA4
:109DA0001B68002BEBD19DF80B30184605B05DF811
:109DB00004FB00BFC0F2030000B585B0019001981C
:109DC00000F00EF80390039B002B01D0039B00E0F2
:109DD000024B184605B05DF804FB00BF24F30300F6
:109DE00086B00190164B0593164B04931FE0049A1E
:109DF000059BD31ADB10DA0F13445B10DB00059AC6
:109E000013440393039B1B680293029A019B9A429B
:109E100002D9039B04930AE0029A019B9A4203D25F
:109E2000039B0833059302E0039B5B6804E0059AFB
:109E3000049B9A42DBD30023184606B0704700BF4C
:109E400024F703004CF8030082B00190019B9B684B
:109E5000024A12781344184602B07047AAF8030069
:109E600000B583B001900091019B002B03D10849FC
:109E70008320FEF788FC019B9B68009A9A4202D2DD
:109E8000009B013300E00023184603B05DF804FB9B
:109E90004CF8030000B585B00190019B1B681B685E
:109EA0000393019B1B685B680293029A039B9A428F
:109EB00003D3029A039BD31A07E00198FFF7C4FF6C
:109EC0000246039BD21A029B1344184605B05DF864
:109ED00004FB000000B585B00190019B002B03D16D
:109EE0000D499820FEF74FFC019B1B681B680393EC
:109EF000019B1B685B68029302990198FFF7B0FF12
:109F00000246039B93420CBF01230023DBB2184699
:109F100005B05DF804FB00BF4CF8030010B588B035
:109F20000190009100230793019B002B03D1564918
:109F3000A320FEF728FC009B002B03D15249A4204C
:109F4000FEF721FC00238DF80F300DF10F031846AA
:109F5000FEF7CCFB0198FFF7BDFF03468DF81B30E1
:109F60009DF81B3083F00103DBB2002B03D1019B72
:109F70001B7C002B7BD1019B1B685B680593019BBD
:109F80001B685A68019B1C6811460198FFF768FF1F
:109F9000034663609DF81B30002B0AD0019B1B68B1
:109FA0001A68019B1C6811460198FFF759FF034688
:109FB0002360019BDB68013B072B38D801A252F8D4
:109FC00023F000BFE59F0200F59F02002FA00200D2
:109FD00007A002002FA002002FA002002FA0020065
:109FE00019A00200019B5A68059B1344009A12783D
:109FF0001A702DE0019B5A68059B5B001344009A80
:10A0000012881A8024E0019B5A68059B9B00134428
:10A01000009A12681A601BE0019B5A68059BDB00DE
:10A02000D118009BD3E90023C1E9002310E0019B74
:10A030005B681946019BDB68059A02FB03F30B443E
:10A040001846019BDB681A46009914F0DBFB00BF41
:10A050000198FFF71FFF0490019B1B689B68049AFF
:10A060009A4207D9019B1B68049A9A6002E0042374
:10A07000079300E000BF9DF80F301846FEF74CFB39
:10A08000079B184608B010BD4CF8030010B588B007
:10A090000390029113468DF8073000230793039B2A
:10A0A000002B03D14549E720FEF76DFB029B002BF7
:10A0B00003D14249E820FEF766FB00238DF81730F4
:10A0C0000DF117031846FEF711FB039800F078F81E
:10A0D000034683F00103DBB2002B63D0039B1B68B4
:10A0E0001B6806939DF8073083F00103DBB2002B59
:10A0F0000AD0039B1B681A68039B1C6811460398CF
:10A10000FFF7AEFE03462360039BDB68013B072B92
:10A1100037D801A252F823F039A1020049A1020068
:10A1200083A102005BA1020083A1020083A10200BF
:10A1300083A102006DA10200039B5A68069B134491
:10A140001A78029B1A702FE0039B5A68069B5B00EB
:10A1500013441A88029B1A8026E0039B5A68069BC8
:10A160009B0013441A68029B1A601DE0039B5A6807
:10A17000069BDB001344D3E900230299C1E90023C5
:10A1800012E0039B5B681946039BDB68069A02FB9F
:10A1900003F30B441946039BDB681A46029814F03C
:10A1A00031FB01E0052307939DF817301846FEF7B1
:10A1B000B3FA079B184608B010BD00BF4CF8030067
:10A1C00000B585B00190019B002B04D10B4940F2F2
:10A1D0002B20FEF7D8FA019B1B681B680393019B99
:10A1E0001B685B680293039A029B9A420CBF01238F
:10A1F0000023DBB2184605B05DF804FB4CF8030001
:10A2000082B00190019B03F00303002B0CBF0123DC
:10A210000023DBB2184602B07047000000B585B0DD
:10A220000190002303930EE00B4A039B52F8233066
:10A23000002B05D0084A039B52F823300198984719
:10A24000039B01330393039B032BEDD900BF00BF96
:10A2500005B05DF804FB00BFD03D002082B0019046
:10A260000091019B1B78013B052B61D801A252F89C
:10A2700023F000BF8DA2020095A20200BBA2020043
:10A28000EDA202000DA3020029A30200009B002200
:10A290001A704EE0009B01221A70019B1A89009BE4
:10A2A0009A81019B9A88009BDA81019BDA68009B66
:10A2B0009A60009B00221A743BE0009B02221A70F5
:10A2C000019B1A89009B9A81019B9A88009BDA81E5
:10A2D000019BDA68009B9A60019B9B7D062B0CBF5B
:10A2E00001230023DAB2009B1A7422E0009B0322B0
:10A2F0001A70019BDA88009B9A81019B1A89009B46
:10A30000DA81019BDA68009B9A6012E0009B0422CC
:10A310001A70019BDA88009B9A81009B0022DA81E7
:10A32000009B00229A6004E0009B05221A7000E066
:10A3300000BF00BF02B0704784B001900091019B44
:10A340000393039A009B9A4206D2039B1B68B3F1C6
:10A35000FF3F01D0012300E0002303F00103DBB243
:10A36000184604B0704782B00190019B5B880333AC
:10A370009B00019A1344184602B0704700B583B0A1
:10A38000019000910198FFF7EEFF0246009B934277
:10A3900001D2022311E0019B9B884FF6FF7293428A
:10A3A00008D0019B1B88002B04D0019B9B68B3F154
:10A3B000FF3F01D1012300E00023184603B05DF800
:10A3C00004FB000000B583B00190019B002B13D06B
:10A3D0000D4BDB681A46019B93420DD30A4B1B6958
:10A3E0001A46019B934207D80198FFF709FF0346DD
:10A3F000002B01D0012300E0002303F00103DBB2B6
:10A40000184603B05DF804FBE82F002082B00190ED
:10A41000019B002B04D0019B1B680B4A934201D087
:10A4200003230DE0019B04331B68084A934204D0C8
:10A43000074A934203D1012302E0002300E00323F3
:10A44000184602B0704700BFDEC0ADDEFE011EF14F
:10A45000FF011EF184B00190019B1B68B3F1FF3F27
:10A4600006D0019B1B680E4A934201D0002314E0E2
:10A47000012303930CE0039B9B00019A13441B6888
:10A48000B3F1FF3F01D0002307E0039B01330393A7
:10A49000039BB3F5806FEED30123184604B07047D9
:10A4A000DEC0ADDE82B003460A46ADF80630134684
:10A4B000ADF80430BDF80620134913469B00134441
:10A4C0009B000B4408331A88BDF804301344ADF8E0
:10A4D0000430BDF806200C4913469B0013449B0032
:10A4E0000B440A331A88BDF804301344ADF8043025
:10A4F000BDF80430B3F5806F94BF01230023DBB2B5
:10A50000184602B0704700BF803E002084B0019022
:10A51000009148F2096303930023ADF80A3027E065
:10A52000BDF80A20164913469B0013449B000B44B8
:10A5300004331B68009A9A4215D9BDF80A201049C5
:10A5400013469B0013449B000B4404331B6803F524
:10A550008053009A9A4206D200230393019BBDF8D0
:10A560000A201A8008E0BDF80A300133ADF80A303D
:10A57000BDF80A30012BD3D9039B184604B07047AD
:10A58000803E002000B589B0039002910192039BA8
:10A5900003F580530693039B08330393029B022227
:10A5A0001A80039B079332E006990798FFF7E6FEAF
:10A5B00003468DF817309DF81730002B0AD1079B02
:10A5C0009A68184B1B689A4213D9079B9B68154AD7
:10A5D00013600EE0019B002B02D0019B01221A7038
:10A5E0009DF81730022B04D1029B4FF480621A8031
:10A5F00014E0029B1A88079B5B8813449BB20333C9
:10A600009AB2029B1A800798FFF7ADFE0790069951
:10A610000798FFF791FE0346002BC5D109B05DF8FE
:10A6200004FB00BFE03D002082B001900091009B40
:10A630009B7D022B09D9019B1A89009BDB8813445F
:10A640009BB203339AB2019B1A81019B5A89009BEA
:10A65000DB88D31A9BB2033B9AB2019B5A8100BF9D
:10A6600002B0704700B583B0074B1B681946002342
:10A6700000930823054A064802F05AF80346184694
:10A6800003B05DF804FB00BFA83E002004F90300FE
:10A69000E82F002000B585B00390039900230093B4
:10A6A0000823044A044802F043F80346184605B05C
:10A6B0005DF804FB0CF90300E82F002000B585B01D
:10A6C00003460091ADF8063000238DF80F30BDF839
:10A6D00006300333ADF80A30BDF80A3040F2FE32DE
:10A6E000934202D948F208634BE00023ADF80C30E6
:10A6F0003BE0BDF80C20254913469B0013449B000A
:10A700000B441B78002B2BD1BDF80A20BDF80C3070
:10A7100011461846FFF7C6FE0346002B20D0012342
:10A720008DF80F30009BBDF80C201A80BDF80C206E
:10A73000164913469B0013449B000B440A331988A7
:10A74000BDF80C20BDF80A300B4498B20F491346EF
:10A750009B0013449B000B440A3302461A8008E016
:10A76000BDF80C300133ADF80C30BDF80C30012BC6
:10A77000BFD99DF80F30002B01D0002301E048F233
:10A780000663184605B05DF804FB00BF803E00205C
:10A7900082B003460A46ADF806301346ADF80430E1
:10A7A000BDF804200D4913469B0013449B000B4445
:10A7B0000A331A88BDF80630D31A9BB2BDF80420BC
:10A7C000033B98B2054913469B0013449B000B447E
:10A7D0000A3302461A8000BF02B07047803E002054
:10A7E00008B501210248FEF76AFA0346184608BD7B
:10A7F000E03D002000B585B003460091ADF806307D
:10A80000BDF80620244913469B0013449B000B44CB
:10A8100004331B6803F580530293009B1B6803936A
:10A82000039B002B04D00398FFF79DFD039026E0C7
:10A83000BDF80620184913469B0013449B000B44A7
:10A8400004331B680833039319E002990398FFF758
:10A8500095FD0346022B10D0022B10DC002B02D0FA
:10A86000012B05D00BE0009B039A1A6001230EE038
:10A870000398FFF778FD039001E0002307E00299B9
:10A880000398FFF759FD0346002BDED1002318463D
:10A8900005B05DF804FB00BF803E002000B585B028
:10A8A00001900091019B5B681846FFF78BFD034602
:10A8B000002B19D0019B1A89244B1B899A4213D172
:10A8C000019B1A68019B5B689B689A420CD1019BB3
:10A8D0005B6819460098FFF719FE0346002B0CBF72
:10A8E00001230023DBB22CE0009B00221A8023E02E
:10A8F0000023029310E0029B0393039B9A68019B41
:10A900001B689A4208D1029A019B5A600F4B1A8920
:10A91000019B1A81012314E0009B1B8802AA1146A7
:10A920001846FFF767FF0346002BE4D1009B1B8806
:10A9300001339AB2009B1A80009B1B88012BD7D948
:10A940000023184605B05DF804FB00BFB03E0020B0
:10A9500000B587B00390029101920093324B1B78AF
:10A96000DBB283F00103DBB2002B02D048F20163BB
:10A9700055E0019B002B02D0009B002B49D148F2EF
:10A9800004634CE0009B9B881946284A0B469B00B9
:10A990000B449B0013441B78002B33D124E0009B15
:10A9A0001B680593039B002B06D0059B9A88039B8D
:10A9B0001B889A4200D017E0029B002B06D0059B13
:10A9C0001A88029B1B889A4200D00DE0059B9A686A
:10A9D000019B1A60009B1A68019B5A60144B1A89EC
:10A9E000019B1A8100231AE0009B9B88009A114664
:10A9F0001846FFF7FFFE0346002BD0D1009B002234
:10AA00001A6000E000BF009B9B8801339AB2009B54
:10AA10009A80009B9B88012BB4D948F209631846A1
:10AA200007B05DF804FB00BFC03D0020803E002061
:10AA3000B03E002000B587B002910192009303461A
:10AA4000ADF80E30BDF80E20324913469B0013447A
:10AA50009B000B4404331B6808330593BDF80E209C
:10AA60002C4913469B0013449B000B4404331B6882
:10AA700003F58053049342E004990598FFF77EFCA8
:10AA80000346022B25D0022B38DC002B16D0012BDD
:10AA900034D1019B1B8801339AB2019B1A80009B21
:10AAA0001A88059B5B8813449BB203339AB2009BC0
:10AAB0001A800598FFF757FC059020E0029B1B8841
:10AAC00001339AB2029B1A800598FFF74CFC05905F
:10AAD00015E0019B1B8801339AB2019B1A80009BF1
:10AAE0001A880499059BCB1A9B109BB213449AB207
:10AAF000009B1A80089B01221A7007E000BF04998E
:10AB00000598FFF719FC0346002BB5D107B05DF897
:10AB100004FB00BF803E002000B585B00190084BCB
:10AB200001991846FDF726FF03901C220021039887
:10AB300013F091FE039B184605B05DF804FB00BFBF
:10AB4000703E002000B583B00190044B0199184677
:10AB5000FDF729FF00BF03B05DF804FB703E002045
:10AB600000B583B00190054B01991846FDF72FFF02
:10AB70000346184603B05DF804FB00BF703E00209A
:10AB800000B583B00190044B01991846FDF738FFDA
:10AB900000BF03B05DF804FB703E002008B50A4B0F
:10ABA0001B68002B04D109494FF42470FDF7EBFD1D
:10ABB00001210548FEF79BF80346002B14BF012333
:10ABC0000023DBB2184608BDC83D0020ACF80300E6
:10ABD00000B587B0002305930023ADF8123003239E
:10ABE000ADF8103000238DF80F300023ADF80C3095
:10ABF000F7E0BDF80C301A03824BDB681344029374
:10AC00000298FFF703FC03468DF807309DF80730E4
:10AC1000032B08D0032B00F3DE80002B65D0012B23
:10AC200000F09880D7E00298FFF714FC0346002B51
:10AC30003BD0754B1B68002B29D0BDF812207349FF
:10AC400013469B0013449B000B4402221A70BDF86C
:10AC500012206E4913469B0013449B000B4404339F
:10AC6000029A1A60BDF81220684913469B001344EB
:10AC70009B000B44083302221A80654ABDF812304B
:10AC80005380BDF812300133ADF8123008E05E4A4F
:10AC9000029B13605C4B02229A8001238DF80F30D7
:10ACA000059B43F00103059396E0BDF81030013B8E
:10ACB000ADF81030BDF81220544913469B001344E0
:10ACC0009B000B440433029A1A60BDF812204F49CE
:10ACD00013469B0013449B000B4403221A70BDF8DB
:10ACE00012300133ADF8123076E0BDF8122047493A
:10ACF00013469B0013449B000B4400221A70BDF8BE
:10AD00001220424913469B0013449B000B4404331A
:10AD1000029A1A60BDF8122013469B0013449B0050
:10AD200008333A4A9918BDF8122013469B00134481
:10AD30009B001033354A13441A460298FFF722FC51
:10AD4000059B43F002030593BDF812300133ADF8C3
:10AD5000123041E09DF80F30002B29D0BDF81220B1
:10AD60002A4913469B0013449B000B4402221A708D
:10AD7000BDF81220244B1968244813469B00134445
:10AD80009B00034404331960BDF812201F49134689
:10AD90009B0013449B000B44083302221A801C4A78
:10ADA000BDF812305380BDF812300133ADF81230C7
:10ADB000154A029B1360002216490298FFF7E2FB36
:10ADC000114B9B88022B01D1042300E00823059A34
:10ADD0001343059300E000BFBDF80C300133ADF81C
:10ADE0000C30BDF80C30022B7FF603AFBDF81030ED
:10ADF000012B01D800230593059BDBB2184607B051
:10AE00005DF804FBE82F0020A83E0020803E0020D3
:10AE1000B03E0020AC3E002000B587B00390029108
:10AE2000039B02229A750299039B1A1D002300932B
:10AE30000423074801F07CFC0590059B002B01D101
:10AE4000002301E048F20D63184607B05DF804FBEB
:10AE5000E82F002000B587B003900291039B1B6987
:10AE6000002B01D0032200E00122039B9A75029B74
:10AE700008331946039B03F10C02002300930423BB
:10AE8000074801F055FC0590059B002B01D10023DC
:10AE900001E048F20D63184607B05DF804FB00BFFF
:10AEA000E82F002000B587B003900291039B1B7828
:10AEB000032B01D1052200E00622039B9A75029B19
:10AEC00004331946039B03F1080200230093042373
:10AED000074801F02DFC0590059B002B01D10023B4
:10AEE00001E048F20D63184607B05DF804FB00BFAF
:10AEF000E82F002000B587B003900B46ADF80A306C
:10AF000003990023009304230D4A0E4801F010FC1E
:10AF10000590059B002B02D048F20D630BE0BDF8B5
:10AF20000A20094913469B0013449B000B4410332D
:10AF300001221A700023184607B05DF804FB00BF19
:10AF400014F90300E82F0020803E002000B589B0EE
:10AF5000019002AB00221A605A609A60019BDB6884
:10AF600002930DF1160202AB11461846FFF796FC4C
:10AF70000346002B12D0039B0693069B9A88019BE5
:10AF8000DA80069B1A88019B1A81039BBDF8162064
:10AF900011461846FFF7AEFF079002E048F209633A
:10AFA0000793079B184609B05DF804FB00B587B00E
:10AFB0000190019B981D02AA0D4B0021FFF7C8FCD0
:10AFC0000590059B002B08D1039B094A92881146E6
:10AFD0001846FFF78FFF059004E00822002104487F
:10AFE00013F039FC059B184607B05DF804FB00BF61
:10AFF000C03E002000B587B003900291039B012260
:10B000009A75029B0C331846039B1A69039BDB88D5
:10B010009B00002100910146074801F089FB059043
:10B02000059B002B01D1002301E048F20D63184677
:10B0300007B05DF804FB00BFE82F002082B0184B7A
:10B040001B8901339AB2164B1A81154B00225A8084
:10B05000134B00221A730023ADF8063018E0BDF838
:10B060000620104913469B0013449B000B441A789A
:10B07000BDF80630002A0CBF01220022D1B2084AD6
:10B0800013440A469A72BDF806300133ADF8063013
:10B09000BDF80630012BE2D900BF00BF02B07047F7
:10B0A000B03E0020803E002084B0019000238DF847
:10B0B0000F300023ADF80C3031E0BDF80C301C4AE5
:10B0C00013449B7A002B25D0BDF80C30184A13444A
:10B0D00000229A72BDF80C20164913469B001344B7
:10B0E0009B000B440C331B68002B13D1BDF80C20C4
:10B0F000104913469B0013449B000B4410331B78EC
:10B10000002B07D0019BBDF80C201A8001238DF87D
:10B110000F3008E0BDF80C300133ADF80C30BDF84D
:10B120000C30012BC9D99DF80F30184604B0704778
:10B13000B03E0020803E002008B5084B05221A7062
:10B14000074B02229A80064B1B68194600230122F6
:10B15000044801F0CFFB0346184608BDB03E00206E
:10B16000A83E0020E82F002000B583B0164B5B8876
:10B17000ADF80230BDF80220144913469B00134479
:10B180009B000B440C331B68002B14D10E4B042284
:10B190001A70BDF802200D4913469B0013449B0012
:10B1A0000B4404331B68194600230122084801F0B0
:10B1B000A1FB019002E0FFF7BFFF0190019B184641
:10B1C00003B05DF804FB00BFB03E0020803E0020CD
:10B1D000E82F002000B587B0104B5B680593104B3B
:10B1E0001A680F4B9B889B0013440493059B5B8854
:10B1F0000333ADF80E30094B03221A700499074B44
:10B200005A68BDF80E309B0000200090054801F000
:10B210008FFA0346184607B05DF804FBB03E0020E5
:10B22000A83E0020E82F002000B583B00A4B5B88C1
:10B230000A491846FFF7DEFA0346002B03D0FFF752
:10B24000C9FF019002E0FFF78FFF0190019B1846B4
:10B2500003B05DF804FB00BFB03E0020B43E002008
:10B2600008B50A4B06221A70084B5B881946084A33
:10B270000B469B000B449B00134404331B68184689
:10B28000FFF708FA0346184608BD00BFB03E00208D
:10B29000803E002008B5054B07221A70034B0022A0
:10B2A0005A60FFF7DFF90346184608BDB03E00209C
:10B2B00008B50D48FFF7F8FE034683F00103DBB243
:10B2C000002B0BD0094B00221A70084B00225A8029
:10B2D000064B00225A6041F61D5302E0FFF7A4FF1F
:10B2E0000346184608BD00BFB23E0020B03E002015
:10B2F00082B0094B5B680193019B5B880333ADF817
:10B300000230064B9A88BDF8023013449AB2034BC0
:10B310009A8000BF02B07047B03E0020A83E0020D7
:10B3200082B0184B1B680193174B5B881946174A6C
:10B330000B469B000B449B00134404331B68114ACB
:10B340001360114B5B881946104A0B469B000B4457
:10B350009B0013440433019A1A600B4B5B88194617
:10B36000084B9888094A0B469B000B449B001344EA
:10B37000083302461A80034B02229A8000BF02B0B3
:10B38000704700BFA83E0020B03E0020803E002055
:10B3900008B51A4B1B78072B2CD801A252F823F0C2
:10B3A000C1B30200F5B30200F5B30200CDB3020051
:10B3B000D9B30200E5B30200E5B30200EDB3020029
:10B3C000FFF73CFE0D4B01221A7014E0FFF790FFCF
:10B3D0000A4B02221A700EE0FFF7A2FF074B06226B
:10B3E0001A7008E0054B07221A7004E0034B012293
:10B3F0001A7000E000BF00BF08BD00BFB03E0020D3
:10B4000000B587B00190009148F20E630593019B4F
:10B41000002B05D0634B00225A604FF40643BCE07A
:10B42000009B1B79032B00F2AB8001A252F823F0A2
:10B4300041B402004FB40200DDB40200FDB40200CA
:10B44000009B01221A71FFF70DF905909BE0002384
:10B450008DF813300023ADF810302BE0BDF810202C
:10B46000514913469B0013449B000B441B78022B4D
:10B470001BD1BDF810204C4913469B0013449B0080
:10B480000B4400221A7001238DF81330BDF81020F0
:10B49000454913469B0013449B000B4404331B682F
:10B4A0001846FFF7F7F8059008E0BDF810300133B3
:10B4B000ADF81030BDF81030012BCFD99DF8133006
:10B4C00083F00103DBB2002B5CD0364B01221A70F3
:10B4D000344B00225A6041F61D535EE0009B00226F
:10B4E0001A71324B02229A80304B1B681946002396
:10B4F00001222F4801F0FEF9059044E0009B002254
:10B500001A712A4B1B681846FFF7C4F80590294B9F
:10B510005B88ADF80E30254B1B680293BDF80E20FA
:10B52000214913469B0013449B000B4404331B68C2
:10B530001E4A1360BDF80E201B4913469B0013449E
:10B540009B000B440433029A1A60BDF80E20174B7F
:10B550009888154913469B0013449B000B440833FD
:10B5600002461A80114B02229A80BDF80E200E4925
:10B5700013469B0013449B000B4400221A7002E008
:10B5800000BF00E000BF059B002B05D0054B00224B
:10B590005A6048F20D6300E00023184607B05DF8DA
:10B5A00004FB00BFC03D0020803E0020A83E0020DC
:10B5B000E82F0020B03E002000B587B00190009138
:10B5C000009B9B8A1A4613469B0013449B003B4AF0
:10B5D00013440493019B002B06D000990498FFF7B5
:10B5E00023F84FF4064364E0049B5A68049B1B89CC
:10B5F0009B0013440393009B9B7D062B4DD801A217
:10B6000052F823F049B602006DB6020055B60200AA
:10B6100061B6020021B6020079B6020093B60200BC
:10B62000274B00225A60009B9B69254A13602549DD
:10B630002348FFF733F9034683F00103DBB2002B05
:10B6400002D048F2096334E003990098FFF7E4FB65
:10B65000059026E003990098FFF7FCFB059020E099
:10B6600003990098FFF7C6FC05901AE0039900982B
:10B67000FFF718FC059014E0009B06229A75104B0A
:10B680005B68104A128811461846FFF733FC059094
:10B6900007E041F61D53059303E048F20E6305935E
:10B6A00000BF059B002B03D000990498FEF7BCFF58
:10B6B000059B184607B05DF804FB00BF803E0020E4
:10B6C000C83E0020D43E002000B585B00190009116
:10B6D000019B002B02D04FF4064329E0009B1B790D
:10B6E000022B1BD0022B1DDC002B02D0012B08D01B
:10B6F00018E0009B02221A710098FFF727FC0390C4
:10B7000015E00098FFF752FC0390039B48F2096292
:10B7100093420BD141F61D53039307E041F61D53AD
:10B72000039304E048F20E63039300E000BF039B21
:10B73000184605B05DF804FB00B585B00190019B8B
:10B74000002B02D04FF406433DE0214B1B7B002B26
:10B7500003D01F4B00221A7301E0FFF719FE1C4BA8
:10B760001B78013B062B29D801A252F823F000BF19
:10B770008DB7020095B702009DB70200A5B7020081
:10B78000BDB70200ADB70200B5B70200FFF790FDEC
:10B79000039017E0FFF748FD039013E0FFF71AFD51
:10B7A00003900FE0FFF7E0FC03900BE0FFF758FD7C
:10B7B000039007E0FFF76EFD039003E048F20E638D
:10B7C000039300BF039B184605B05DF804FB00BF60
:10B7D000B03E002000B589B00190404B1B68002BA3
:10B7E00005D13F48FFF7BCF903463C4A13603B4B89
:10B7F0001B68002B04D13B4940F29B50FCF7C3FF70
:10B80000364B1B681B78013B052B2CD801A252F844
:10B8100023F000BF2DB802003DB802003DB8020081
:10B820004DB802004DB802005DB802002B4B1B68FA
:10B8300019460198FFF7E4FD019018E0274B1B68BB
:10B8400019460198FFF7B8FE019010E0234B1B68E2
:10B8500019460198FFF738FF019008E00198FFF7BB
:10B860006BFF019003E048F20E63019300BF019B60
:10B87000002B2BD003AB00221A605A609A60DA606A
:10B880001A61019B41F61D52934201D0019B00E0D9
:10B8900000230493114B1B6803AA11461846FEF7B8
:10B8A000DDFC03AB1846FEF7B9FC0C4B00221A6016
:10B8B000002301930A48FFF763F9FFF76FF9034686
:10B8C00083F00103DBB2002B02D186E700BF00E06A
:10B8D00000BF00BF09B05DF804FB00BFD83E0020E8
:10B8E000DC3E0020ACF8030008B501210548FDF757
:10B8F000CEF90346002B02D10020FFF76BFF00BFFB
:10B9000008BD00BFC83D002000B583B00190019B79
:10B910005B681846FFF75EFF00BF03B05DF804FBED
:10B9200000B58BB00390029101928DF80330002393
:10B93000ADF824300023ADF82630534B1B78DBB232
:10B9400083F00103DBB2002B02D048F2016397E0E1
:10B95000029B002B02D148F2046391E0029B1B88FA
:10B960004FF6FF72934203D0029B5B88002B02D1FB
:10B9700048F2036384E0029B5B681846FEF740FCD4
:10B98000034683F00103DBB2002B02D048F20263CE
:10B9900076E0019B002B11D1029B9B68ADF826300D
:10B9A0000DF11A02BDF8263011461846FEF786FE44
:10B9B0000890089B002B09D0089B61E0019B1B8825
:10B9C000ADF81A30019B5B88ADF8263005AB184600
:10B9D000FFF7A2F80790079B002B0AD1BDF81A20A9
:10B9E000BDF8263011461846FEF7D2FE48F207632E
:10B9F00046E0079B9DF803201A70079B00229A756A
:10BA0000BDF81A20079B9A82029B5A68079B1A610D
:10BA1000FEF7E6FE0246079BDA60029B1A88079B48
:10BA20001A81029B5A88079B9A80079BBDF82620A3
:10BA3000DA809DF80330032B06D1079B04229A7508
:10BA4000039B1A68079B9A61079BBDF824205A81C3
:10BA500005AB1846FFF776F8039B002B0DD0039B30
:10BA600000225A60079BDA68039B1A60039B00223E
:10BA70009A72064B1A89039B1A81FFF735FF002340
:10BA800018460BB05DF804FBC03D0020B03E00201E
:10BA900000B585B001900C4B1B68042B03D148F214
:10BAA0000B6303930BE0084B1B680849019A41F8AC
:10BAB000232001210448FDF702F900230393039B8F
:10BAC000184605B05DF804FBCC3D0020D03D0020B9
:10BAD00084B040F6F8731B68B3F1FF3F02D10F4BFF
